:100000000C9422010C9453010C9453010C94530151
:100010000C9453010C9453010C9453010C94530110
:100020000C9453010C9453010C9453010C94530100
:100030000C9453010C9453010C9453010C945301F0
:100040000C9453010C9453010C9453010C945301E0
:100050000C9453010C9453010C9453010C94EA0337
:100060000C9453010C9453010C9453010C945301C0
:100070000C9453010C9453010C9453010C945301B0
:100080000C9453010C9453010C9453010C945301A0
:100090000C9453010C9453010C9453010C94530190
:1000A0000C9453010C9453010C9453010C94530180
:1000B0000C9453010C9453010C9453010C94530170
:1000C0000C9453010C9453010C9453010C94530160
:1000D0000C9453010C9453010C9453010C94530150
:1000E0000C9453010C9419020C9427020C94F00107
:1000F0000C9413050C941D020C9401020C94EC0159
:100100000C94E8010C94D1010C94D6010C941502C6
:100110000C9474010C94FD010C9423020C94840241
:100120000C9485020C94E4030C940F020C940B02C3
:100130000C9407020C94F4010C94F70100000A0BD4
:1001400002090C0D0E080703040100000000000066
:10015000000000000000000000000000000000009F
:10016000000000000000000012111000000000005C
:10017000000000000000000000000000000000007F
:10018000000000002200250028002B002E00310076
:10019000340002010000050108010B0100002100EC
:1001A000240027002A002D00300033000101000048
:1001B000040107010A0105050505070508080808E7
:1001C000020202020A0A08080404040401010101EF
:1001D00001010101030303030303030304070707EA
:1001E0000C0C0C0C0C0C0C0C02020202060606068F
:1001F000060606060B0B0B0B0B0B0B0B010210205C
:10020000200808102040102040800201020108044C
:1002100002010102040810204080804020100804E0
:100220000201800402018040201008040201080439
:10023000020101020408102040800102040810207D
:100240004080130511241FBECFEFD1E2DEBFCDBF2A
:1002500000E00CBF12E0A0E0B2E0E6E7FAE000E068
:100260000BBF02C007900D92A835B107D9F722E065
:10027000A8E5B2E001C01D92A937B207E1F711E08D
:10028000C2E2D1E000E006C021970109802FFE0103
:100290000E943105C132D10780E00807A9F70E940A
:1002A00034040C9439050C94000090E0FC01E450F7
:1002B000FE4F24918A549E4FFC018491882399F02B
:1002C00090E0880F991FFC01E456FE4FA591B49170
:1002D000FC01EE57FE4F859194918FB7F894EC9105
:1002E000E22BEC938FBF0895AF92BF92CF92DF9233
:1002F000EF92FF920F931F93CF93DF936C017B01DB
:100300008B01040F151FEB015E01AE18BF08C0176B
:10031000D10759F06991D601ED91FC910190F081DE
:10032000E02DC6011995892B79F7C501DF91CF9191
:100330001F910F91FF90EF90DF90CF90BF90AF9003
:100340000895282F30E0F901E45CFE4F9491F90103
:10035000E450FE4F44912A543E4FF9012491222348
:1003600009F435C0992311F191509231F8F4E92F35
:10037000F0E08827E154FE4F8F4F0C943105F001D7
:10038000F401D101E801EC01D601F701FD01010200
:1003900007020B020F0215021902D6011D022302E9
:1003A0002702809180008F7780938000E22FF0E019
:1003B000EE0FFF1FEE57FE4FA591B4918FB7F89443
:1003C000EC91611148C040954E234C938FBF089526
:1003D000809180008F7DE8CF80918000877FE4CF7F
:1003E00084B58F7784BDE2CF84B58F7DFBCF8091BC
:1003F000B0008F778093B000D9CF8091B0008F7D0F
:10040000F9CF809190008F7780939000CFCF80912B
:1004100090008F7DF9CF80919000877FF5CF8091FC
:10042000A0008F778093A000C1CF8091A0008F7D26
:10043000F9CF8091A000877FF5CF809120018F7741
:1004400080932001B3CF809120018F7DF9CF8091DF
:100450002001877FF5CF4E2BB8CF3FB7F89480911E
:100460005D0290915E02A0915F02B091600226B59C
:10047000A89B05C02F3F19F00196A11DB11D3FBFDC
:10048000BA2FA92F982F8827BC01CD01620F711DAB
:10049000811D911D42E0660F771F881F991F4A95A5
:1004A000D1F708958F929F92AF92BF92CF92DF9231
:1004B000EF92FF924B015C010E942D026B017C01C7
:1004C0000E942D026C197D098E099F09683E7340B8
:1004D00081059105A8F321E0821A9108A108B108CD
:1004E00088EEC80E83E0D81EE11CF11C8114910433
:1004F000A104B10429F7FF90EF90DF90CF90BF9057
:10050000AF909F908F900895089590E080E00895B7
:10051000FC0101900020E9F73197AF01481B590B0E
:10052000BC0181E692E00C947401CF93DF93EC015F
:1005300060E08E810E94A10161E08E810E94A10194
:1005400060E08E810E94A1018BE891E00197F1F7B4
:10055000DF91CF910895CF92DF92EF92FF920F93A8
:100560001F93CF93DF936C017C0187E0E80EF11CB1
:10057000D0E0C0E0062F10E0B8010C2E02C0759547
:1005800067950A94E2F76170F70181917F010E94FB
:10059000A1012196C430D10579F7C601DF91CF9131
:1005A0001F910F91FF90EF90DF90CF900C949502E8
:1005B000CF92DF92EF92FF920F931F93CF93DF932F
:1005C000EC01F62E642F8C810E94A1018D818F3F5A
:1005D00019F060E00E94A1010F2D10E08F8584FFCB
:1005E00025C06E0187E0C80ED11CF12CE12CB801AA
:1005F0000E2C02C0759567950A94E2F76170F601BA
:1006000081916F010E94A101FFEFEF1AFF0A88E0BC
:10061000E816F10461F7CE01DF91CF911F910F91A0
:10062000FF90EF90DF90CF900C949502B80184E09A
:10063000759567958A95E1F7CE010E94AB026F2D03
:10064000CE01DF91CF911F910F91FF90EF90DF903E
:10065000CF900C94AB0240E0682F81E692E00C94BE
:10066000D80281E00E942B038BE39FE10197F1F711
:100670000895CF93DF93823029F4909170029860AF
:1006800090937002809374021092750280E48093BC
:10069000760280E18093770280E5809378028091F2
:1006A00065020E945501809166028F3F11F00E9401
:1006B0005501809167020E945501C1E6D2E09E017A
:1006C000215632408091700284FD0AC084E090E09F
:1006D0002196281739073CF48E810E945501EFCFEF
:1006E00088E090E0F5CF8BE39DE00197F1F760E0C3
:1006F000809165020E94A10160E0809167020E94E2
:10070000A101809166028F3F19F060E00E94A10173
:100710008091700284FD34C063E081E692E00E9423
:10072000AB02CBE4D6E4CE010197F1F763E081E6BA
:1007300092E00E94AB022197F1F763E081E692E03C
:100740000E94AB0283E592E00197F1F762E081E657
:1007500092E00E94AB028091700280620E942B03A3
:1007600084E0809371028CE00E942B030E9431038D
:1007700082E08093720286E0DF91CF910C942B038C
:1007800080620E942B038BE496E40197F1F780913D
:10079000700280620E942B0383E592E00197F1F7DB
:1007A0008091700280620E942B03D5CFE091740289
:1007B000E23040F4E150F0E0EF59FD4F8489806869
:1007C0000C942B03E1E0F7CF41E00E94D80281E0D6
:1007D00090E008951F920F920FB60F9211242F935D
:1007E0003F938F939F93AF93BF93809159029091C2
:1007F0005A02A0915B02B0915C023091580223E052
:10080000230F2D3758F50196A11DB11D20935802D5
:100810008093590290935A02A0935B02B0935C02BA
:1008200080915D0290915E02A0915F02B0916002A2
:100830000196A11DB11D80935D0290935E02A0936D
:100840005F02B0936002BF91AF919F918F913F91F2
:100850002F910F900FBE0F901F90189526E8230F31
:100860000296A11DB11DD2CF789484B5826084BD5B
:1008700084B5816084BD85B5826085BD85B58160A4
:1008800085BD80916E00816080936E001092810022
:1008900080918100826080938100809181008160DD
:1008A000809381008091800081608093800080919E
:1008B000B10084608093B1008091B000816080932A
:1008C000B0008091910082608093910080919100AE
:1008D000816080939100809190008160809390006E
:1008E0008091A10082608093A1008091A10081602D
:1008F0008093A1008091A00081608093A0008091EE
:100900002101826080932101809121018160809387
:1009100021018091200181608093200180917A00E3
:10092000846080937A0080917A00826080937A005C
:1009300080917A00816080937A0080917A0080684B
:1009400080937A001092C10082E00E9439038DE00A
:100950000E94550182E00E945501C0E0D0E061E0B4
:100960008DE00E94A10160ED77E080E090E00E94C0
:10097000520261E082E00E94A1010E9431038CE0FA
:1009800092E00E9488020E94D60368EB7BE080E040
:1009900090E00E94520261E08DE00E94A10168EEA9
:1009A00073E080E090E00E94520261E082E00E94E9
:1009B000A1010E94310381E292E00E9488020E941C
:1009C000D60368EB7BE080E090E00E94520261E099
:1009D0008DE00E94A10164EF71E080E090E00E9450
:1009E000520261E082E00E94A1010E94310387E38C
:1009F00092E00E9488020E94D60360E08DE00E948F
:100A0000A10160E082E00E94A1010E9431038CE418
:100A100092E00E9488020E94D603209709F49FCF9B
:100A20000E9400009CCFE1E6F2E01382128284E093
:100A300092E0918380838CE084838FEF85838BE0C9
:100A4000868387E0878386E0808785E0818784E0EE
:100A500082871386148615861686178681E00C9485
:100A60003903EE0FFF1F881F8BBF0790F691E02D13
:060A70001994F894FFCF79
:100A760000000000E4037401850284025379737454
:100A8600656D206F6E206669727374206D6F646584
:100A96000073797374656D206F6E207365636F6E76
:100AA60064206D6F64650073797374656D206F6E75
:100AB600207468697264206D6F646500737973745D
:080AC600656D204F666600001B
:00000001FF
